:020000040000FA
:060000000A128A11122809
:10000800FE00030EF0000408F1000A08F200831253
:1000180003137F08F3000A168A11F62D0A128A11B3
:100028001528F801F9018313C0308400C8300A1676
:100038008A1117230A128A11831790308400EA3034
:100048000A168A1117230A128A1183010A128A11C1
:100058002D28831603138801831203138801FF30A8
:1000680083160313860081138B170B178C160A1639
:100078008A111F230A128A11003083120313B10058
:100088000030B0002530AF008030AE000A128A156B
:10009800B7220A128A110A128A1528210A128A110D
:1000A80002300A168A11DD230A128A11750883168E
:1000B8000313BF007408BE003F08803AFF00813078
:1000C8007F02031D692890303E0203186C286D28B2
:1000D8007128831203138815742883120313881157
:1000E80000300A168A11DD230A128A117508831650
:1000F8000313BF007408BE00443083120313D600F4
:100108008030D5000030D4000030D3004030BC002F
:10011800A030BB000030BA000030B90083160313CA
:100128003E0883120313AB00831603133F088312A0
:100138000313AC000030AC1BFF30AD00AE00013043
:100148000A128A156C200A128A11831203132E08C8
:10015800C0002D08BF002C08BE002B08BD000A12E5
:100168008A1133240A128A11831203133C08DA0015
:100178003B08D9003A08D8003908D7000A128A156E
:1001880093230A128A118312031356088316031342
:10019800B90083120313550883160313B80083129A
:1001A8000313540883160313B70083120313530869
:1001B80083160313B600423083120313BC00C83001
:1001C800BB000030BA000030B900831603133908A9
:1001D80083120313C0008316031338088312031312
:1001E800BF0083160313370883120313BE00831658
:1001F8000313360883120313BD000A128A1133242D
:100208000A128A11831203133C0883160313BD00D4
:10021800831203133B0883160313BC0083120313D2
:100228003A0883160313BB00831203133908831695
:100238000313BA0001300A168A11DD230A128A1143
:10024800750883160313BF007408BE003F08803A80
:10025800FF0082307F02031D3329BD303E02031C9C
:100268003629372953298312031308171330A50099
:100278009130A6000A168A11B7240A128A111A3078
:1002880083120313EF005E30EE006D30ED00ED0BCE
:100298004B29EE0B4B29EF0B4B2952295629831278
:1002A800031308138312031306185B295C296D29AD
:1002B8000310881C03140318622966298312031388
:1002C80088146929831203138810061C6C296D2968
:1002D800692986187029712982290310081E0314B8
:1002E800031877297B298312031308167E298312A2
:1002F80003130812861C812982297E29061985295B
:10030800862997290310081D031403188C2990299E
:100318008312031308159329831203130811061D6A
:1003280096299729932986199A299B299F29861DF9
:100338009E299F299B29831603134008410403190A
:10034800A629A7295428C001C101EB30F500913036
:10035800F6000A168A1171240A128A1133308312A0
:100368000313EF00BB30EE00DF30ED00ED0BBA29D0
:10037800EE0BBA29EF0BBA29313083120313A70009
:100388009230A80090300A168A11A5250A128A11FF
:10039800FF007F0883160313C7003130831203134D
:1003A800A0009230A1000430A2000030A300831600
:1003B800031347080A168A1155250A128A1183124F
:1003C800031320082104031DEA29EB29F6298814C0
:1003D8007D30A5009130A6000A168A11B7240A12AA
:1003E8008A11292A2730A7009230A80090300A16CF
:1003F8008A11A5250A128A11FF007F0883160313A4
:10040800C700273083120313A0009230A1000430E4
:10041800A2000030A3008316031347080A168A11A6
:1004280055250A128A118312031320082104031D7B
:100438001E2A1F2A292A88109230A5009130A6006A
:100448000A168A11B7240A128A1116308312031366
:10045800A7009230A80090300A168A11A5250A1222
:100468008A11FF007F0883160313C7001630831212
:100478000313A0009230A1000430A2000030A300B2
:100488008316031347080A168A1155250A128A117A
:100498008312031320082104031D532A542A5F2AB8
:1004A8000816E530A5009030A6000A168A11B72470
:1004B8000A128A11922A0F30A7009230A8009030B1
:1004C8000A168A11A5250A128A11FF007F088316C9
:1004D8000313C7000F3083120313A0009230A1004A
:1004E8000430A2000030A3008316031347080A163D
:1004F8008A1155250A128A11831203132008210430
:10050800031D872A882A922A0812FC30A5009030F9
:10051800A6000A168A11B7240A128A112C308312EF
:100528000313A7009230A80090300A168A11A52557
:100538000A128A11FF007F0883160313C7002C30A4
:1005480083120313A0009230A1000430A2000030EF
:10055800A3008316031347080A168A1155250A12A1
:100568008A118312031320082104031DBC2ABD2A03
:10057800C82A08155330A5009130A6000A168A111A
:10058800B7240A128A11FB2A2230A7009230A80049
:1005980090300A168A11A5250A128A11FF007F08D1
:1005A80083160313C700223083120313A00092306E
:1005B800A1000430A2000030A300831603134708EB
:1005C8000A168A1155250A128A1183120313200864
:1005D8002104031DF02AF12AFB2A08116830A5001E
:1005E8009130A6000A168A11B7240A128A113630E9
:1005F80083120313A7009230A80090300A168A11BC
:10060800A5250A128A11FF007F0883160313C70065
:10061800363083120313A0009230A1000430A200E8
:100628000030A3008316031347080A168A115525BC
:100638000A128A118312031320082104031D252B93
:10064800262B1E2C831603133D0883120313D60092
:10065800831603133C0883120313D5008316031370
:100668003B0883120313D400831603133A0883123A
:100678000313D300A030FF007F08D7000230D80052
:100688000030D9000A128A15EB210A128A11363075
:10069800F5009030F6000A168A1171240A128A11A0
:1006A8000D3083120313EF00AF30EE00B530ED00CC
:1006B800ED0B5C2BEE0B5C2BEF0B5C2B632B83128F
:1006C8000313081D682B692B722B6830F5009030D6
:1006D800F6000A168A1171240A128A11831203136A
:1006E8000819772B782B812BB330F5009030F60062
:1006F8000A168A1171240A128A1183120313081E1A
:10070800862B872B902B0030F5009030F6000A16C8
:100718008A1171240A128A1183120313081A952B5D
:10072800962B9F2B1B30F5009030F6000A168A1185
:1007380071240A128A1183120313881CA42BA52B77
:10074800AE2B8130F5009030F6000A168A1171241C
:100758000A128A11831203138818B32BB42BBD2BEA
:10076800CC30F5009030F6000A168A1171240A126E
:100778008A11831203138819C22BC32BCC2B9A30EE
:10078800F5009030F6000A168A1171240A128A11AF
:1007980083120313881DD12BD22BDB2B4F30F5008E
:1007A8009030F6000A168A1171240A128A11BB3099
:1007B800F5009130F6000A168A1171240A128A117E
:1007C800A030F5000030F6000A168A1171240A12CA
:1007D8008A113B30F5009230F6000A168A1171240E
:1007E8000A128A110D3083120313EF00AF30EE00A6
:1007F800B530ED00ED0BFE2BEE0BFE2BEF0BFE2BB9
:10080800052C83160313981C0A2C0B2C052C1A3064
:100818008312031399001A3083120313EF005E301A
:10082800EE006D30ED00ED0B172CEE0B172CEF0BD7
:10083800172C1E2C0A168A1128230A128A110A1646
:100848008A1153230A128A1183160313C601C5019C
:10085800C401C301C20154280A128A111228831242
:1008680003133C088039FF007F08C6003C08C1001C
:100878004107FF007F08CC00BB1F432C442C452CAC
:100888004C144C080319492C4A2C592C4C0A031DAA
:100898004E2C4F2C572C0030BC000030BB000030D1
:1008A800BA000030B900BB17612C0030BC00003022
:1008B800BB000030BA000030B90040088039FF00A2
:1008C8007F08C6064008C1004107FF007F08CB002B
:1008D800BF1F6F2C702C712C4B144B080319752CEF
:1008E800762C852C4B0A031D7A2C7B2C832C00300C
:1008F800C0000030BF000030BE000030BD00BF1790
:100908008D2C0030C0000030BF000030BE00003029
:10091800BD004B080319912C922C972C4C08031DF1
:10092800962C972CA02C0030BC000030BB00003067
:10093800BA000030B900932F3908FF007F08F4008F
:100948003F080A168A11B4230A128A1175088312FD
:100958000313D2007408D1005108C100C201C301B9
:10096800C4014408CA004308C9004208C800410835
:10097800C7005208C100C201C301C4014408D00025
:100988004308CF004208CE004108CD003A08FF00D6
:100998007F08F4003E080A168A11B4230A128A1145
:1009A800750883120313D2007408D1005108C100DE
:1009B800C201C301C4014108C70742080311031853
:1009C800013E0319E82CC807430803110318013E28
:1009D8000319EF2CC907440803110318013E031932
:1009E800F62CCA075208C100C201C301C40141085C
:1009F800CD07420803110318013E0319042DCE0741
:100A0800430803110318013E03190B2DCF074408AF
:100A180003110318013E0319122DD0073B08FF00EC
:100A28007F08F4003D080A168A11B4230A128A11B5
:100A3800750883120313D2007408D1005108C1004D
:100A4800C201C301C4014108C707420803110318C2
:100A5800013E0319302DC807430803110318013E4E
:100A68000319372DC907440803110318013E031958
:100A78003E2DCA075208C100C201C301C401410882
:100A8800CD07420803110318013E03194C2DCE0768
:100A9800430803110318013E0319532DCF074408D7
:100AA80003110318013E03195A2DD0070830C1005D
:100AB8000310C70DC80DC90DCA0DC10B5C2D3A082E
:100AC800FF007F08F4003D080A168A11B4230A12B1
:100AD8008A11750883120313D2007408D1005108D3
:100AE800C1005208C200C301C4014108C707420837
:100AF80003110318013E0319822DC8074308031187
:100B08000318013E0319892DC90744080311031866
:100B1800013E0319902DCA073908FF007F08F40029
:100B28003E080A168A11B4230A128A11750883121C
:100B38000313D2007408D1005108C1005208C20042
:100B4800C301C4014108C707420803110318013E45
:100B58000319AF2DC807430803110318013E0319F1
:100B6800B62DC907440803110318013E0319BD2D0A
:100B7800CA070830C1000310C70DC80DC90DCA0D3A
:100B8800C10BBF2D3908FF007F08F4003D080A1685
:100B98008A11B4230A128A11750883120313D2002A
:100BA8007408D1005108C1005208C200C301C40131
:100BB8004108C707420803110318013E0319E52D30
:100BC800C807430803110318013E0319EC2DC90790
:100BD800440803110318013E0319F32DCA073A0804
:100BE800FF007F08F4003F080A168A11B4230A128E
:100BF8008A11750883120313D2007408D1005108B2
:100C0800C1005208C200C301C4014108CD0742080F
:100C180003110318013E0319122ECE0743080311CE
:100C28000318013E0319192ECF07440803110318AE
:100C3800013E0319202ED0073B08FF007F08F4006F
:100C48003E080A168A11B4230A128A1175088312FB
:100C58000313D2007408D1005108C1005208C20021
:100C6800C301C4014108CD07420803110318013E1E
:100C780003193F2ECE07430803110318013E031939
:100C8800462ECF07440803110318013E03194D2EC1
:100C9800D0073B08FF007F08F4003F080A168A11B6
:100CA800B4230A128A11750883120313D200740838
:100CB800D1005108C1005208C200C301C401083064
:100CC8000310C10DC20DC30DC40DFF3E031D642EDC
:100CD8004108CD07420803110318013E0319752E78
:100CE800CE07430803110318013E03197C2ECF07D2
:100CF800440803110318013E0319832ED00747083F
:100D0800C1004808C2004908C3004A08C400183096
:100D18000310C40CC30CC20CC10CFF3E031D8C2E67
:100D28004108CD07420803110318013E03199D2EFF
:100D3800CE07430803110318013E0319A42ECF0759
:100D4800440803110318013E0319AB2ED0070830DD
:100D5800C1000310C70DC80DC90DCA0DC10BAD2EBA
:100D68004C084B07C100C201C20D4108823ED100A8
:100D780042080318013EFF3ED200DF2E0130C100B9
:100D88000310CD0DCE0DCF0DD00DC10BC42ECA1F33
:100D9800CE2ECF2ED02E4D140130C1000310C70D1A
:100DA800C80DC90DCA0DC10BD22EFF30D1070318CB
:100DB800D20AFF30D207CF1FE22EE32EC22ECB017C
:100DC800CA1FE72EE82E042FFF304705C100FF3069
:100DD8004805C200FF304905C3007F304A05C400FA
:100DE80044084304420441040319FB2EFC2EFF2E41
:100DF800CB01CB0A042F4D1C022F032F042FFC2EEE
:100E08004B080319082F092F3A2F0130CD0700305E
:100E180003180130CE07003003180130CF07003027
:100E280003180130D007501C1A2F1B2F3A2F4D08DA
:100E3800C1004E08C2004F08C3005008C40001306A
:100E4800C500440DC40CC30CC20CC10CC50B252F26
:100E58004408D0004308CF004208CE004108CD0026
:100E68000130D1070318D20A0030D2075208803A5D
:100E7800FF0080307F02031D432FFF305102031C07
:100E8800462F472F522F7F3083120313D000803014
:100E9800CF000030CE000030CD00872F831203131F
:100EA8005208803AFF0080307F02031D5D2F013019
:100EB80051020318602F612F6D2F00308312031326
:100EC800D0000030CF000030CE000030CD00C60189
:100ED800872F831203135108FF007F08CC00FF30CF
:100EE800CD05FF30CE057F30CF050030D0054C1C36
:100EF8007E2F7F2F802FCF174C08C1000310410C85
:100F0800FF007F08D0004608FF007F08D004500883
:100F1800BC004F08BB004E08BA004D08B9000800D5
:100F280083120313A101F51F9A2F9B2FA22FF409F7
:100F3800F509F40A0319F50AA101A10AF71FA52F5B
:100F4800A62FAF2FF609F709F60A0319F70A013099
:100F5800FF007F08A106A201A30174087504031904
:100F6800B62FB72FEE2FA001A00AC52F013003100E
:100F7800F40DF50DFF3E031DBB2F0130FF007F0868
:100F8800A007F51FC82FC92FBA2F01300310A20DD3
:100F9800A30DFF3E031DCA2F75087702031DD62F28
:100FA80074087602031CD92FDA2FE12F7408F60291
:100FB8007508031CF703F702221401300310F50C1F
:100FC800F40CFF3E031DE22F0130A002031DED2F9C
:100FD800EE2FC92F21080319F22FF32FF82FA2099A
:100FE800A309A20A0319A30A2308F5002208F4009A
:020FF8000800EF
:10100A00F40083160313981C0B280C28062874086E
:10101A00831203139900080083120313A101F71F17
:10102A00172818281F28F609F709F60A0319F70AD4
:10103A00A101A10AF51F222823282828F409F50965
:10104A00F40A0319F50A7408750403192D282E28C1
:10105A005D28A001A00A3C2801300310F40DF50D0B
:10106A00FF3E031D32280130FF007F08A007F51F4D
:10107A003F284028312875087702031D462874083E
:10108A007602031C49284A2850287408F602750873
:10109A00031CF703F70201300310F50CF40CFF3EB2
:1010AA00031D51280130A002031D5C285D28402839
:1010BA0021080319612862286728F609F709F60A40
:1010CA000319F70A7708F5007608F4000800831276
:1010DA000313B30033080319732874288828AE1F32
:1010EA007728782888282B09B5002C09B6002D09FD
:1010FA00B7002E09B800B50A0319B60A0319B70AC8
:10110A000319B80A90282E08B8002D08B7002C0831
:10111A00B6002B08B5002E082D042C042B04031D41
:10112A0097289828A1280030AE000030AD00003082
:10113A00AC000030AB0027299630FF007F08B400CE
:10114A00B3280130FF007F08B40701300310B80C40
:10115A00B70CB60CB50CFF3E031DAB28FE303805A4
:10116A00031DB828B928A628D5280130FF007F0812
:10117A00B4070130B507003003180130B607003054
:10118A0003180130B707003003180130B8070130DF
:10119A000310B80CB70CB60CB50CFF3E031DCD28D6
:1011AA00FF303805031DDA28DB28BA28E728013082
:1011BA00B4020130AF000310B50DB60DB70DB80D6E
:1011CA00AF0BE028B71BEA28EB28F12802303402DB
:1011DA000318F028F128DC283418F428F528FD280B
:1011EA00FF30B505FF30B6057F30B705FF30B805CB
:1011FA000310B40C3408AF00B001B101B2011830C9
:10120A000310AF0DB00DB10DB20DFF3E031D052940
:10121A002F08B5043008B6043108B7043208B804F8
:10122A003308031919291A291F29AE1F1D291E2936
:10123A001F29B8173808AE003708AD003608AC00C9
:10124A003508AB0008001D30F5009230F6000A168A
:10125A008A1171240A128A150D3083120313AC0005
:10126A00AF30AB00B530AA00AA0B3929AB0B39292C
:10127A00AC0B392940290130F5009230F6000A16E4
:10128A008A1171240A128A150D3083120313AC00D5
:10129A00AF30AB00B530AA00AA0B5129AB0B5129CC
:1012AA00AC0B512958290830F5009230F6000A167D
:1012BA008A1171240A128A150D3083120313AC00A5
:1012CA00AF30AB00B530AA00AA0B6929AB0B69296C
:1012DA00AC0B69297029CF30F5009130F6000A1657
:1012EA008A1171240A128A150D3083120313AC0075
:1012FA00AF30AB00B530AA00AA0B8129AB0B81290C
:10130A00AC0B81298829DF30F5009130F6000A16E6
:10131A008A1171240A128A150D3083120313AC0044
:10132A00AF30AB00B530AA00AA0B9929AB0B9929AB
:10133A00AC0B9929A029A730F5009130F6000A16BE
:10134A008A1171240A128A150D3083120313AC0014
:10135A00AF30AB00B530AA00AA0BB129AB0BB1294B
:10136A00AC0BB129B829F730F5009130F6000A160E
:10137A008A1171240A128A150D3083120313AC00E4
:10138A00AF30AB00B530AA00AA0BC929AB0BC929EB
:10139A00AC0BC929D0293E3083120313A500913022
:1013AA00A6000A168A11B7240A128A150D3083126A
:1013BA000313AC00AF30AB00B530AA00AA0BE32987
:1013CA00AB0BE329AC0BE329EA29080083120313C8
:1013DA005608F7005508F6005408F5005308F400BB
:1013EA000A168A11E7260A128A1575088312031348
:1013FA00DC007408DB005B08AB005C08AC00003062
:10140A00AC1BFF30AD00AE0001300A128A156C2009
:10141A000A128A15831203132E08BC002D08BB007A
:10142A002C08BA002B08B9005608C0005508BF009E
:10143A005408BE005308BD000A168A116C230A120A
:10144A008A15831203133C08E2003B08E1003A08BC
:10145A00E0003908DF005C08AB005B08AA00570807
:10146A00FF007F08AC000030AD00AE000A168A11FA
:10147A006E260A128A15831203132B08DE002A0825
:10148A00DD005808590403194B2A4C2AB62A2E3073
:10149A00FF005D085707DA005A0884007F088313A3
:1014AA0080006208BC006108BB006008BA005F08DF
:1014BA00B9005908A5005808A4000A30A200003053
:1014CA00A3000A168A1133240A128A1583120313F7
:1014DA002508AE002408AD002308AC002208AB00A2
:1014EA0001300A128A156C200A128A158312031314
:1014FA002E08C0002D08BF002C08BE002B08BD0016
:10150A000A128A1133240A128A15831203133C0819
:10151A00E2003B08E1003A08E0003908DF0062080F
:10152A00F7006108F6006008F5005F08F4000A1683
:10153A008A11E7260A128A15750883120313AB006B
:10154A007408AA005D085707013EFF007F08AC0037
:10155A005908AE005808AD000A168A116E260A12FA
:10156A008A150800831203132E08B2002F08B3004D
:10157A003008B4003108B50006300310B20DB30DBF
:10158A00B40DB50DFF3E031DC22A3508A300340869
:10159A00A2003308A1003208A0002E08B6002F08C6
:1015AA00B7003008B8003108B90006300310B60D8C
:1015BA00B70DB80DB90DFF3E031DDB2A0030BA0086
:1015CA002D30BB003130BC000130BD003608BA02F4
:1015DA003708031C370FF22AF32ABB023808031C08
:1015EA00380FF82AF92ABC023908031C390FFE2AD7
:1015FA00FF2ABD023D08A7003C08A6003B08A5003B
:10160A003A08A4000A168A1163270A128A15831255
:10161A0003132108F6002008F50001307602003095
:10162A0003197502031C1A2B1B2B772B2E08B200E9
:10163A002F08B3003008B4003108B5000430031095
:10164A00B20DB30DB40DB50DFF3E031D242B3508A5
:10165A00A3003408A2003308A1003208A0002E0813
:10166A00B6002F08B7003008B8003108B9000430B6
:10167A000310B60DB70DB80DB90DFF3E031D3D2B76
:10168A000030BA002D30BB003130BC000130BD0043
:10169A003608BA023708031C370F542B552BBB02E6
:1016AA003808031C380F5A2B5B2BBC023908031C61
:1016BA00390F602B612BBD023D08A7003C08A6002C
:1016CA003B08A5003A08A4000A168A1163270A12E1
:1016DA008A15831203132108F6002008F5008316E1
:1016EA000313181501307602003003197502031826
:1016FA007F2B802B922B75088316031399001812DF
:10170A008312031398178316031387170717831275
:10171A00031318168316031398160800831203136B
:10172A005A088039FF007F08E4005A08DB005B078B
:10173A00FF007F08EB00D91FA32BA42BA52B6B144A
:10174A006B080319A92BAA2BBA2B6B0A031DAE2B04
:10175A00AF2BB72B0030DA000030D9000030D800A8
:10176A000030D700D917DA01C22B0030DA00003076
:10177A00D9000030D8000030D70056088039FF0061
:10178A007F08E4065608DB005B07FF007F08EC00D1
:10179A00D51FD02BD12BD22B6C146C080319D62B46
:1017AA00D72BE72B6C0A031DDB2BDC2BE42B003039
:1017BA00D6000030D5000030D4000030D300D51751
:1017CA00D601EF2B0030D6000030D5000030D4000F
:1017DA000030D3005608550454045304031DF62B55
:1017EA00F72B102C0030DA000030D9000030D80076
:1017FA000030D7008030D9047F30DA046408FF0053
:10180A007F08DA045A08D6005908D5005808D400C7
:10181A005708D3006F2D6B08031D142C152C1E2C92
:10182A000030D6000030D5000030D4000030D3009C
:10183A006F2D6B08DB00DC015C08DE006C085B02C4
:10184A00DD00031CDE035D087F3EE5005E08031829
:10185A00013E003EE6005A08E3005908E200580833
:10186A00E1005708E0000030DA000030D90000300B
:10187A00D8000030D7000030EA000030E90000301C
:10188A00E8000030E700EC01942C6C0803194E2C98
:10189A004F2C6F2C0130DB000310E00DE10DE20D3F
:1018AA00E30DDB0B512C0130DB000310D70DD80DF3
:1018BA00D90DDA0DDB0B5A2CEA1F642C652C662C29
:1018CA0057140130DB000310E70DE80DE90DEA0DAE
:1018DA00DB0B682C56086302031D7D2C5508620237
:1018EA00031D7D2C54086102031D7D2C53086002E0
:1018FA00031C802C812C902C6A175308E002540890
:10190A00031C540FE1025508031C550FE202560846
:10191A00031C560FE3020130FF007F08EC071A3060
:10192A006C02031C992C9A2C4A2C630862046104E9
:10193A0060040319A12CA22CC12C6714C12C0130FC
:10194A00DB000310D70DD80DD90DDA0DDB0BA62C51
:10195A00EA1FB02CB12CB22C57140130DB00031053
:10196A00E70DE80DE90DEA0DDB0BB42CFF30E507B6
:10197A000318E60AFF30E607D91FC42CC52CA42C8D
:10198A00EC01EA1FC92CCA2CE62CFF306705DB00E4
:10199A00FF306805DC00FF306905DD007F306A052D
:1019AA00DE005E085D045C045B040319DD2CDE2C9A
:1019BA00E12CEC01EC0AE62C571CE42CE52CE62C75
:1019CA00DE2C6C080319EA2CEB2C1C2D0130D707EE
:1019DA00003003180130D807003003180130D90746
:1019EA00003003180130DA075A1CFC2CFD2C1C2D80
:1019FA005708DB005808DC005908DD005A08DE00E9
:101A0A000130DF005E0DDE0CDD0CDC0CDB0CDF0BC5
:101A1A00072D5E08DA005D08D9005C08D8005B086B
:101A2A00D7000130E5070318E60A0030E607660822
:101A3A00803AFF0080307F02031D252DFF306502AA
:101A4A00031C282D292D372DFF3083120313E5009F
:101A5A000030E6000030DA000030D9000030D8004B
:101A6A000030D700831203136608803AFF008030E3
:101A7A007F02031D422D013065020318452D462DB4
:101A8A00532D83120313E501E6010030DA0000301A
:101A9A00D9000030D8000030D700E40183120313C4
:101AAA006508FF007F08EB006B1C5C2D5D2D5F2D28
:101ABA00D917632D7F30FF007F08D9056B08DB003B
:101ACA0003105B0CFF007F08DA006408FF007F0840
:101ADA00DA04072C08008312031323088039FF0055
:101AEA007F08F4002308A8002807FF007F08F600F3
:101AFA00A21F802D812D822D761476080319862D3A
:101B0A00872D972D760A031D8B2D8C2D942D003051
:101B1A00A3000030A2000030A1000030A000A217EC
:101B2A00A3019F2D0030A3000030A2000030A100C5
:101B3A000030A00027088039FF007F08F5007508EB
:101B4A0074060319A92DAA2DAB2D74172708A8000E
:101B5A002807FF007F08F500A61FB42DB52DB62D66
:101B6A00751475080319BA2DBB2DCB2D750A031DE3
:101B7A00BF2DC02DC82D0030A7000030A6000030B0
:101B8A00A5000030A400A617A701D32D0030A70096
:101B9A000030A6000030A5000030A40076087502C7
:101BAA000318D82DD92D1D2E741FDC2DDD2DE12D06
:101BBA008030FF007F08F4067608FF007F08F700F0
:101BCA007508FF007F08F6007708FF007F08F50018
:101BDA002008FF007F08F7002408FF007F08A00004
:101BEA007708FF007F08A4002108FF007F08F7009C
:101BFA002508FF007F08A1007708FF007F08A500DD
:101C0A002208FF007F08F7002608FF007F08A200CD
:101C1A007708FF007F08A6002308FF007F08F70067
:101C2A002708FF007F08A3007708FF007F08A700A6
:101C3A00F7017508A800A9012908AB00760828024F
:101C4A00AA00031CAB032B08803AFF0080307F02F6
:101C5A00031D312E1A302A02031C342E352E762EFD
:101C6A00831203132308220421042004031D3E2E99
:101C7A00402E0130412E0030FF007F08F70000306F
:101C8A00A3000030A2000030A1000030A0007508B7
:101C9A00FF007F08F6007C2E771C542E552E602EEE
:101CAA00770883120313A8000310280C0138FF00D9
:101CBA007F08F700622E0310F70C83120313201C0F
:101CCA00672E682E692EF7170130A800230DA30C82
:101CDA00A20CA10CA00CA80B6B2E0130FF007F08F0
:101CEA00F60775087602031C7B2E7C2E512E741B78
:101CFA007F2E802ECF2E7608031D842E852E902EC1
:101D0A00003083120313A3000030A2000030A100A8
:101D1A000030A000FF2F831203132408A007250810
:101D2A0003110318013E03199B2EA107260803116C
:101D3A000318013E0319A22EA2072708031103184C
:101D4A00013E0319A92EA307231CAC2EAD2E852F05
:101D5A00771CB02EB12EBA2E7708A8000310280CD3
:101D6A000138FF007F08F700BC2E0310F70C201C77
:101D7A00BF2EC02EC12EF7170130A800230DA30CC9
:101D8A00A20CA10CA00CA80BC32E0130FF007F08E7
:101D9A00F607852F831203132308803AFF002708CA
:101DAA00803A7F02031DE32E26082202031DE32E3A
:101DBA0025082102031DE32E240820020318E62E1B
:101DCA00E72E3F2FFF30A800FF30A900FF30AA00FE
:101DDA00FF30AB002408AC002508AD002608AE0091
:101DEA002708AF002008AC022108031C210FFE2E91
:101DFA00FF2EAD022208031C220F042F052FAE026C
:101E0A002308031C230F0A2F0B2FAF022C08A80745
:101E1A002D0803182D0F122F132FA9072E080318A8
:101E2A002E0F182F192FAA072F0803182F0AAB07EE
:101E3A002B08A3002A08A2002908A1002808A0004C
:101E4A008030FF007F08F406F709F70A7708031DB8
:101E5A002F2F302F4D2F0130A007003003180130EB
:101E6A00A107003003180130A2070030031801301F
:101E7A00A3074D2F2408A0022508031C250FA10241
:101E8A002608031C260FA2022708031C270FA302F9
:101E9A002308220421042004031D542F552F812FC7
:101EAA007708031D592F5A2F812F0030A3000030C5
:101EBA00A2000030A1000030A000FF2F0130A800CE
:101ECA000310A00DA10DA20DA30DA80B652FF71FDE
:101EDA006F2F702F712F2014771C742F752F782F66
:101EEA000314F70D7A2F0310F70D760803197E2FC6
:101EFA007F2F812F0130F602A21F842F852F632F97
:101F0A00F501F71F892F8A2F982F77087F39031930
:101F1A008F2F902F932FF501F50A982F201C962FBB
:101F2A00972F982F902F750803199C2F9D2FD12F2B
:101F3A000130A007003003180130A1070030031850
:101F4A000130A207003003180130A307231CAE2F6B
:101F5A00AF2FD12F2008A8002108A9002208AA0023
:101F6A002308AB000130AC002B0DAB0CAA0CA90C5A
:101F7A00A80CAC0BB92F2B08A3002A08A200290829
:101F8A00A1002808A000760A0319CC2FCD2FD12F43
:101F9A000130FF007F08F607760A0319D52FD62FDE
:101FAA00DB2F7608031DDA2FDB2FE92F0030A30081
:101FBA000030A2000030A1000030A0007608031D06
:101FCA00E72FE82FE92FF401761CEC2FED2FEF2FE6
:101FDA00A217F32F7F30FF007F08A2057608A8001A
:101FEA000310280CFF007F08A300F41FFD2FFE2F0B
:101FFA00FF2FA3170800643465346E34203470341C
:10200A0068346F346E34673420346B346834613426
:10201A00633468342034643461346E346734203471
:10202A006234613474340D340A34003464346534EF
:10203A006E342034703468346F346E34673420342C
:10204A006B34683461346334683420346434613402
:10205A006E34673420347434613474340D340A3481
:10206A000034413454342B3443344D3447345334DC
:10207A003D3422342B343834343433343534343424
:10208A0037343734383432343434353422340D3436
:10209A000A340034643465346E3420346E34673460
:1020AA006F34613469342034733461346E342034CB
:1020BA00643461346E346734203462346134743485
:1020CA000D340A340034643465346E342034703488
:1020DA0068346F346E346734203462346534703453
:1020EA002034643461346E346734203462346134A9
:1020FA0074340D340A340034643465346E34203454
:10210A00703468346F346E34673420346E34673414
:10211A0075342034643461346E3467342034623464
:10212A00613474340D340A340034643465346E34E2
:10213A0020346E3467346F34613469342034733434
:10214A0061346E342034643461346E34673420343C
:10215A007434613474340D340A34003464346534AC
:10216A006E342034703468346F346E3467342034FB
:10217A006234653470342034643461346E346734C4
:10218A0020347434613474340D340A3400346434C1
:10219A0065346E342034703468346F346E34673486
:1021AA0020346E34673475342034643461346E34C8
:1021BA00673420347434613474340D340A3400348E
:1021CA0064346134203462346134743420346434C5
:1021DA0065346E342034703468346F346E34673446
:1021EA0020346B34683461346334683400346434C2
:1021FA006134203474346134743420346434653482
:10220A006E342034703468346F346E34673420345A
:10221A006B34683461346334683400346334613451
:10222A006E3468342034623461346F3420346B3451
:10223A0068346934203467346134203472346F343A
:10224A002034723469340034413454342B344334E6
:10225A004D344734443441343D34223444344534D3
:10226A004C34203441344C344C3422340D340A3446
:10227A0000344B3468346F346934203464346F3436
:10228A006E346734203478346F346E3467342034D3
:10229A0072346F3469342134213400346434613443
:1022AA0020346234613474342034643465346E34D6
:1022BA002034703468346F346E34673420346234B6
:1022CA0065347034003464346134203474346134D5
:1022DA0074342034643465346E3420347034683491
:1022EA006F346E34673420346234653470340034A9
:1022FA006434613420346234613474342034643494
:10230A0065346E342034703468346F346E34673414
:10231A0020346E34673475340034643461342034C4
:10232A007434613474342034643465346E34203443
:10233A00703468346F346E34673420346E346734E2
:10234A0075340034413454342B3443344E344D34D0
:10235A0049343D3431342C3432342C3430342C3436
:10236A0030342C3430340D340A3400346E3468344A
:10237A00693465347434203464346F3420347034EE
:10238A0068346F346E34673420346C3461343A34D0
:10239A0020340034413454342B34433453344334DA
:1023AA0053343D342234473453344D3422340D34BB
:1023BA000A340034413454342B3443344D344734D2
:1023CA0046343D3431340D340A3400344134543403
:1023DA002B3443344D34473452343D3431340D3484
:1023EA000A340034413454342B34433453344134A2
:1023FA0053340D340A3400344134543445343034BF
:10240A000D340A34003441345434263457340D34EC
:10241A000A3400344B3468346134633468343034F9
:10242A0000344B34683461346334683431340034F2
:10243A00413454340D340A3400344234653470342F
:10244A00303400344E346734753430340034423416
:10245A0065347034313400344E3467347534313471
:10246A00003469346E3466346F3400340A340D34FF
:10247A000034FF1B482A83137F1883170008840A35
:10248A000319FF0A08007F087F398A000408840AB2
:06249A000319FF0A820095
:10262E0064008001840A0406031900340406182B82
:10263E004130831203139F00C030831603139F0093
:10264E000800F9012030FF007908903E84007F08D1
:10265E00831780000130FF007F08F9075A30790296
:10266E00031C3A2B3B2B292B0800F600760884001E
:10267E00831700087406031D452B462B482B76083E
:10268E00522B760884000130F6070008031D502BEC
:10269E00512B3D2B003008002930F5009130F6000B
:1026AE000A168A1171240A168A110D308312031329
:1026BE00A700AF30A600B530A500A50B642BA60B66
:1026CE00642BA70B642B6B2B080080308312031333
:1026DE00BC064008A3003F08A2003E08A1003D082A
:1026EE00A0003C08A7003B08A6003A08A500390840
:1026FE00A4000A128A1570250A168A118312031372
:10270E002308BC002208BB002108BA002008B9002B
:10271E0008007408F6007508F7009B2B0130F607C9
:10272E000318F70A0030F707770883120313FF0028
:10273E00760884000A168A113E220A168A11003A79
:10274E00031DAA2BAB2B952B74087602F40075088B
:10275E00031C750A7702F500080083120313A40008
:10276E00A001A1017408F600F7017608A20077080F
:10277E00A300241CC32BC42BCA2B2208A0070318AA
:10278E00A10A2308A10701300310A20DA30DFF3EDD
:10279E00031DCB2B0310A40C2408031DD72BD82B01
:1027AE00C02B2108F5002008F40008008312031343
:1027BE00A0000130FF007F089F052008F6000230C0
:1027CE000310F60DFF3E031DE72B0310760DFF00E1
:1027DE007F089F040D30F700FB30F600F60BF52B4B
:1027EE00F70BF52BFA2B831203131F151F19002C51
:1027FE00012CFD2B1E08F500831603131E08F40092
:10280E00080083120313A001A101741C0F2C102CBD
:10281E00182C760883120313A0070318A10A770851
:10282E00A10701300310F60DF70DFF3E031D192C05
:10283E0001300310F50CF40CFF3E031D202C740820
:10284E007504031D2B2C2C2C0C2C83120313210826
:10285E00F5002008F4000800013083120313A900CC
:10286E000030AA00A701A801572C831203132308D6
:10287E00F5002208F4002A08F7002908F6000A16C7
:10288E008A1108240A168A11750883120313AA00E6
:10289E007408A9000130A7070318A80A0030A8077A
:1028AE002808803AA6002508803A2602031D612CCE
:1028BE0024082702031C642C652C3C2C8312031362
:1028CE002908A2002A08A3000030A31BFF30A40091
:1028DE00A500080083120313A301A4019A2C230858
:1028EE007507A1007608A0000318A00AA31F802C6C
:1028FE00A003831203132008A2002208FF00210860
:10290E0084000A168A113E220A168A110A128A15A4
:10291E0005200A168A11013083120313A307031828
:10292E00A40A0030A40723087507A1007608A000AA
:10293E000318A00AA31FA42CA003831203132008BC
:10294E00A2002208FF00210884000A168A113E22E6
:10295E000A168A11003A031DB52CB62C762C0800E7
:10296E003630F5009030F6000A168A1171240A16D8
:10297E008A110D3083120313A900AF30A800B530B1
:10298E00A700A70BC82CA80BC82CA90BC82CCF2CA2
:10299E00831203132508F5002608F6000A168A117D
:1029AE0071240A168A113B30F5009230F6000A1691
:1029BE008A1171240A168A110D3083120313A9008D
:1029CE00AF30A800B530A700A70BEB2CA80BEB2C53
:1029DE00A90BEB2CF22C1A308312031399001A3028
:1029EE0083120313A9005E30A8006D30A700A70B59
:1029FE00FE2CA80BFE2CA90BFE2C052D0800831215
:102A0E000313A900A501A6017408FF3EA7007508CF
:102A1E000318013EFF3EA800462D8312031325081E
:102A2E002907A0002008840083130008A100A2013A
:102A3E002108A3002208A40027082907A0002008C7
:102A4E0084000008FF0025082907A1002108840042
:102A5E007F0880002308FF0027082907A000200810
:102A6E0084007F0880000130A5070318A60A0030F5
:102A7E00A607FF30A7070318A80AFF30A8072608E5
:102A8E00803AA0002808803A2002031D502D270806
:102A9E002502031C532D542D142D080083120313ED
:102AAE00A600942D26088400831700080319602DB4
:102ABE00612D742D2108FF00200884000A168A114A
:102ACE003E220A168A11A4002608840083170008E5
:102ADE0024060319732D742D8A2D2108FF0020085A
:102AEE0084000A168A113E220A168A11A4002608AC
:102AFE00840083170008A50024082502A000A10168
:102B0E00031CA103A42D0130FF007F08A60701308E
:102B1E00A0070318A10A0030A1070130A20200305D
:102B2E00031CA303A302220A031DA12D230A031DC6
:102B3E00A12DA22D592DA001A1010800831203136E
:102B4E00AB00E72D2708A0002808A1002708F400F5
:102B5E002808F5000A168A1190230A168A1175089C
:102B6E0083120313A3007408A2002B080A168A11FD
:102B7E0055250A168A118312031320082104031DFA
:102B8E00C92DCA2DCC2D2B08F52D2808FF0027089E
:102B9E0084000A168A113E220A168A11A900AA0179
:102BAE002908F4002A08F5002B08013E0A168A119E
:102BBE003C230A168A11FF007F0883120313AB0011
:102BCE002B080319EB2DEC2DF42D2B088400831705
:102BDE000008031DF32DF42DA92D003008008C1EC6
:102BEE00F92DFA2D632E981CFD2DFE2D032E181295
:102BFE0000008312031318161A08FF007F088316AD
:102C0E000313C6004608FF007808903E84007F0834
:102C1E00831780000130FF007F08F8075B307802D1
:102C2E00031C1A2E1B2E1C2EF8012B304606031DDC
:102C3E00212E222E262E4608FF007F08C500433087
:102C4E004606031D2B2E2C2E302E4608FF007F0825
:102C5E00C4004D304606031D352E362E3A2E46083C
:102C6E00FF007F08C30054304606031D3F2E402E42
:102C7E00442E4608FF007F08C2002B304506031D78
:102C8E00492E4A2E602E43304406031D4F2E502EE1
:102C9E00602E4D304306031D552E562E602E543099
:102CAE004206031D5B2E5C2E602E0130C0000030EC
:102CBE00C100831203138C127308FF0072088A007E
:102CCE0071088400700E8300FE0E7E0E09008312C2
:102CDE000313B001B101A62E0A30F4000030F50046
:102CEE002B08F7002A08F6000A128A1511200A1678
:102CFE008A117408303EFF008312031330082C072C
:102D0E00AF002F0884007F08831380000130B007C6
:102D1E000318B10A0030B1070A30F4000030F50094
:102D2E002B08F7002A08F6000A128A1194270A16B1
:102D3E008A11750883120313AB007408AA002A08BF
:102D4E002B04031DAB2EAC2E732EBF2E3030FF0086
:102D5E008312031330082C07AF002F0884007F085E
:102D6E00831380000130B0070318B10A0030B10799
:102D7E003108803AAF002E08803A2F02031DC92E6B
:102D8E002D083002031CCC2ECD2EAD2E8312031334
:102D9E003108F5003008F4002C080A168A110625B1
:102DAE000A168A118312031330082C07AF002F085E
:102DBE008400831380013108AB003008AA0008009C
:102DCE000310760D770DFF007F0883120313A50005
:102DDE002508031DF32EF42EFD2E0030F7000030D3
:102DEE00F6000030F5000030F400622F7408A000E9
:102DFE007508A1007608A2007708A3001F30031003
:102E0E00A30CA20CA10CA00CFF3E031D062F200844
:102E1E00FF007F08A400F617FF30F405FF30F5051C
:102E2E00FF30F6050030F7059630A502A51F202FBE
:102E3E00212F3B2F2508803A973E0318272F282F46
:102E4E00292FF42E01300310F70CF60CF50CF40CB0
:102E5E00FF3E031D2A2F0130FF007F08A507031D2B
:102E6E00392F3A2F292F522F20302502031C402FA5
:102E7E00412F4D2FF42E0130A0000310F40DF50D4F
:102E8E00F60DF70DA00B442F0130A5022508031DEA
:102E9E00512F522F422F24080319562F572F622FCE
:102EAE00F409F509F609F709F40A0319F50A0319E5
:102EBE00F60A0319F70A080083120313A901A31FC8
:102ECE00692F6A2F772FA009A109A209A309A00AC9
:102EDE000319A10A0319A20A0319A30AA901A90A2F
:102EEE00A71F7A2F7B2F8A2FA409A509A609A70948
:102EFE00A40A0319A50A0319A60A0319A70A013081
:102F0E00FF007F08A9060030AD000030AC00003095
:102F1E00AB000030AA002308220421042004031968
:102F2E00992F9A2FE72FA801A80AAA2F0130F40093
:102F3E000310A00DA10DA20DA30DF40B9F2F0130B8
:102F4E00FF007F08A807A31FAD2FAE2F9D2F0130C6
:102F5E00F4000310AA0DAB0DAC0DAD0DF40BB02F9C
:102F6E0023082702031DC52F22082602031DC52F85
:102F7E0021082502031DC52F20082402031CC82F7B
:102F8E00C92FD82F2008A4022108031C210FA50247
:102F9E002208031C220FA6022308031C230FA702DC
:102FAE002A1401300310A30CA20CA10CA00CFF3E9E
:102FBE00031DD92F0130A802031DE62FE72FAE2FD8
:102FCE0029080319EB2FEC2FF72FAA09AB09AC092F
:102FDE00AD09AA0A0319AB0A0319AC0A0319AD0A03
:102FEE002D08A3002C08A2002B08A1002A08A0007F
:022FFE000800C9
:02400E003A3F37
:00000001FF
